{
  "contractName": "Transaction",
  "abi": [
    {
      "constant": true,
      "inputs": [
        {
          "name": "",
          "type": "uint256"
        }
      ],
      "name": "transactionsMap",
      "outputs": [
        {
          "name": "ngoSender",
          "type": "address"
        },
        {
          "name": "agriReceiver",
          "type": "address"
        },
        {
          "name": "requiredCarbonPercDecrease",
          "type": "uint256"
        },
        {
          "name": "carbonReducProgress",
          "type": "uint256"
        },
        {
          "name": "contractCompleted",
          "type": "bool"
        },
        {
          "name": "contractDate",
          "type": "uint256"
        },
        {
          "name": "contractLastUpdateDate",
          "type": "uint256"
        }
      ],
      "payable": false,
      "stateMutability": "view",
      "type": "function"
    },
    {
      "constant": true,
      "inputs": [],
      "name": "transactionCount",
      "outputs": [
        {
          "name": "",
          "type": "uint256"
        }
      ],
      "payable": false,
      "stateMutability": "view",
      "type": "function"
    },
    {
      "inputs": [],
      "payable": false,
      "stateMutability": "nonpayable",
      "type": "constructor"
    },
    {
      "anonymous": false,
      "inputs": [
        {
          "indexed": false,
          "name": "_transferTo",
          "type": "address"
        },
        {
          "indexed": false,
          "name": "_transferFrom",
          "type": "address"
        },
        {
          "indexed": false,
          "name": "_amount",
          "type": "uint256"
        },
        {
          "indexed": false,
          "name": "_transactionMapKey",
          "type": "uint256"
        }
      ],
      "name": "TransferFund",
      "type": "event"
    },
    {
      "constant": false,
      "inputs": [
        {
          "name": "_transferTo",
          "type": "address"
        },
        {
          "name": "_requiredCarbonPercDecrease",
          "type": "uint256"
        },
        {
          "name": "_transactionId",
          "type": "uint256"
        }
      ],
      "name": "transferFund",
      "outputs": [
        {
          "name": "",
          "type": "bool"
        }
      ],
      "payable": true,
      "stateMutability": "payable",
      "type": "function"
    },
    {
      "constant": false,
      "inputs": [],
      "name": "getBalanceOfCurrentAccount",
      "outputs": [
        {
          "name": "",
          "type": "uint256"
        }
      ],
      "payable": true,
      "stateMutability": "payable",
      "type": "function"
    },
    {
      "constant": false,
      "inputs": [
        {
          "name": "_transactionMapKey",
          "type": "uint256"
        },
        {
          "name": "_carbonReducProgress",
          "type": "uint256"
        }
      ],
      "name": "editTransactionCarbonReducProgress",
      "outputs": [
        {
          "name": "",
          "type": "bool"
        }
      ],
      "payable": false,
      "stateMutability": "nonpayable",
      "type": "function"
    },
    {
      "constant": false,
      "inputs": [
        {
          "name": "_transactionMapKey",
          "type": "uint256"
        }
      ],
      "name": "getSingleTransactionWithMapKey",
      "outputs": [
        {
          "name": "",
          "type": "uint256"
        },
        {
          "name": "",
          "type": "uint256"
        },
        {
          "name": "",
          "type": "bool"
        },
        {
          "name": "",
          "type": "uint256"
        },
        {
          "name": "",
          "type": "uint256"
        }
      ],
      "payable": false,
      "stateMutability": "nonpayable",
      "type": "function"
    }
  ],
  "bytecode": "0x608060405234801561001057600080fd5b506106c3806100206000396000f300608060405260043610610078576000357c0100000000000000000000000000000000000000000000000000000000900463ffffffff16806338bb60b71461007d5780635f370d35146100cc578063884fb77814610193578063b77bf600146101f5578063bca2353514610220578063eba1877b14610281575b600080fd5b34801561008957600080fd5b506100b2600480360381019080803590602001909291908035906020019092919050505061029f565b604051808215151515815260200191505060405180910390f35b3480156100d857600080fd5b506100f76004803603810190808035906020019092919050505061032f565b604051808873ffffffffffffffffffffffffffffffffffffffff1673ffffffffffffffffffffffffffffffffffffffff1681526020018773ffffffffffffffffffffffffffffffffffffffff1673ffffffffffffffffffffffffffffffffffffffff1681526020018681526020018581526020018415151515815260200183815260200182815260200197505050505050505060405180910390f35b6101db600480360381019080803573ffffffffffffffffffffffffffffffffffffffff16906020019092919080359060200190929190803590602001909291905050506103be565b604051808215151515815260200191505060405180910390f35b34801561020157600080fd5b5061020a61061a565b6040518082815260200191505060405180910390f35b34801561022c57600080fd5b5061024b60048036038101908080359060200190929190505050610620565b60405180868152602001858152602001841515151581526020018381526020018281526020019550505050505060405180910390f35b610289610678565b6040518082815260200191505060405180910390f35b600081600160008581526020019081526020016000206003018190555042600160008581526020019081526020016000206006018190555060016000848152602001908152602001600020600201548210151561032557600180600085815260200190815260200160002060040160006101000a81548160ff0219169083151502179055505b6001905092915050565b60016020528060005260406000206000915090508060000160009054906101000a900473ffffffffffffffffffffffffffffffffffffffff16908060010160009054906101000a900473ffffffffffffffffffffffffffffffffffffffff16908060020154908060030154908060040160009054906101000a900460ff16908060050154908060060154905087565b60008373ffffffffffffffffffffffffffffffffffffffff166108fc349081150290604051600060405180830381858888f19350505050158015610406573d6000803e3d6000fd5b50600080815480929190600101919050555060e0604051908101604052803373ffffffffffffffffffffffffffffffffffffffff1681526020018573ffffffffffffffffffffffffffffffffffffffff16815260200184815260200160008152602001600015158152602001428152602001428152506001600084815260200190815260200160002060008201518160000160006101000a81548173ffffffffffffffffffffffffffffffffffffffff021916908373ffffffffffffffffffffffffffffffffffffffff16021790555060208201518160010160006101000a81548173ffffffffffffffffffffffffffffffffffffffff021916908373ffffffffffffffffffffffffffffffffffffffff160217905550604082015181600201556060820151816003015560808201518160040160006101000a81548160ff02191690831515021790555060a0820151816005015560c082015181600601559050507f85e79157cc5a6cb49729848c7869840b978552ce5d0f7be2fe5cfd35ab05f46d84333485604051808573ffffffffffffffffffffffffffffffffffffffff1673ffffffffffffffffffffffffffffffffffffffff1681526020018473ffffffffffffffffffffffffffffffffffffffff1673ffffffffffffffffffffffffffffffffffffffff16815260200183815260200182815260200194505050505060405180910390a1600190509392505050565b60005481565b600080600080600080600160008881526020019081526020016000209050806002015481600301548260040160009054906101000a900460ff1683600501548460060154955095509550955095505091939590929450565b60003373ffffffffffffffffffffffffffffffffffffffff16319050905600a165627a7a72305820d6798b8097499435f6aabc717f812687a894d7d283f0ef051c96a90834c934450029",
  "source": "pragma solidity ^0.4.17;\r\n\r\ncontract Transaction {\r\n\r\n    struct SingleTransaction {\r\n        address ngoSender;\r\n        address agriReceiver;\r\n        uint requiredCarbonPercDecrease;\r\n        uint carbonReducProgress;\r\n        bool contractCompleted;    \r\n        uint contractDate;\r\n        uint contractLastUpdateDate;\r\n    }\r\n\r\n    // Store Transactions Count\r\n    uint public transactionCount;\r\n\r\n    mapping(uint => SingleTransaction) public transactionsMap;\r\n\r\n    event TransferFund(address _transferTo, address _transferFrom, uint _amount, uint _transactionMapKey);\r\n\r\n    constructor() public {        \r\n    }\r\n\r\n    function transferFund(address _transferTo, uint _requiredCarbonPercDecrease, uint _transactionId) public payable returns (bool){\r\n        _transferTo.transfer(msg.value);\r\n        transactionCount++;\r\n        transactionsMap[_transactionId] = SingleTransaction(msg.sender, _transferTo, _requiredCarbonPercDecrease, 0, false, now, now);\r\n        emit TransferFund(_transferTo, msg.sender, msg.value, _transactionId);\r\n        return true;\r\n    }\r\n    \r\n    function getBalanceOfCurrentAccount() public payable returns (uint) {\r\n        return msg.sender.balance;\r\n    }\r\n\r\n    function editTransactionCarbonReducProgress(uint _transactionMapKey, uint _carbonReducProgress) public returns (bool) {\r\n        transactionsMap[_transactionMapKey].carbonReducProgress = _carbonReducProgress;\r\n        transactionsMap[_transactionMapKey].contractLastUpdateDate = now;\r\n        if(_carbonReducProgress >= transactionsMap[_transactionMapKey].requiredCarbonPercDecrease) {\r\n            transactionsMap[_transactionMapKey].contractCompleted = true;\r\n        }\r\n        return true;\r\n    }\r\n\r\n    function getSingleTransactionWithMapKey(uint _transactionMapKey) public returns(uint, uint, bool, uint, uint) {\r\n        SingleTransaction singleTransaction = transactionsMap[_transactionMapKey];\r\n        return (singleTransaction.requiredCarbonPercDecrease, singleTransaction.carbonReducProgress,\r\n            singleTransaction.contractCompleted, singleTransaction.contractDate,  singleTransaction.contractLastUpdateDate);\r\n    }\r\n}",
  "sourcePath": "C:\\Users\\manue\\Documents\\CropHopeApp\\crop-app\\contracts\\contracts\\Transaction.sol",
  "compiler": {
    "name": "solc",
    "version": "0.4.24+commit.e67f0147.Emscripten.clang"
  },
  "schemaVersion": "2.0.1",
  "updatedAt": "2018-11-19T09:37:59.107Z"
}