{
  "contractName": "Transaction",
  "abi": [
    {
      "constant": true,
      "inputs": [
        {
          "name": "",
          "type": "uint256"
        }
      ],
      "name": "transactionsMap",
      "outputs": [
        {
          "name": "ngoSender",
          "type": "address"
        },
        {
          "name": "agriReceiver",
          "type": "address"
        },
        {
          "name": "requiredCarbonPercDecrease",
          "type": "uint256"
        },
        {
          "name": "carbonReducProgress",
          "type": "uint256"
        },
        {
          "name": "contractCompleted",
          "type": "bool"
        },
        {
          "name": "contractDate",
          "type": "uint256"
        },
        {
          "name": "contractLastUpdateDate",
          "type": "uint256"
        }
      ],
      "payable": false,
      "stateMutability": "view",
      "type": "function"
    },
    {
      "constant": true,
      "inputs": [],
      "name": "transactionCount",
      "outputs": [
        {
          "name": "",
          "type": "uint256"
        }
      ],
      "payable": false,
      "stateMutability": "view",
      "type": "function"
    },
    {
      "inputs": [],
      "payable": false,
      "stateMutability": "nonpayable",
      "type": "constructor"
    },
    {
      "anonymous": false,
      "inputs": [
        {
          "indexed": false,
          "name": "_transferTo",
          "type": "address"
        },
        {
          "indexed": false,
          "name": "_transferFrom",
          "type": "address"
        },
        {
          "indexed": false,
          "name": "_amount",
          "type": "uint256"
        },
        {
          "indexed": false,
          "name": "_transactionMapKey",
          "type": "uint256"
        }
      ],
      "name": "TransferFund",
      "type": "event"
    },
    {
      "constant": false,
      "inputs": [
        {
          "name": "_transferTo",
          "type": "address"
        },
        {
          "name": "requiredCarbonPercDecrease",
          "type": "uint256"
        }
      ],
      "name": "transferFund",
      "outputs": [
        {
          "name": "",
          "type": "bool"
        }
      ],
      "payable": true,
      "stateMutability": "payable",
      "type": "function"
    },
    {
      "constant": false,
      "inputs": [],
      "name": "getBalanceOfCurrentAccount",
      "outputs": [
        {
          "name": "",
          "type": "uint256"
        }
      ],
      "payable": true,
      "stateMutability": "payable",
      "type": "function"
    },
    {
      "constant": false,
      "inputs": [
        {
          "name": "_transactionMapKey",
          "type": "uint256"
        },
        {
          "name": "_carbonReducProgress",
          "type": "uint256"
        }
      ],
      "name": "editTransactionCarbonReducProgress",
      "outputs": [],
      "payable": false,
      "stateMutability": "nonpayable",
      "type": "function"
    }
  ],
  "bytecode": "0x608060405234801561001057600080fd5b506105d7806100206000396000f30060806040526004361061006d576000357c0100000000000000000000000000000000000000000000000000000000900463ffffffff16806338bb60b7146100725780635f370d35146100a9578063b77bf60014610170578063e2dc35e01461019b578063eba1877b146101f3575b600080fd5b34801561007e57600080fd5b506100a76004803603810190808035906020019092919080359060200190929190505050610211565b005b3480156100b557600080fd5b506100d460048036038101908080359060200190929190505050610299565b604051808873ffffffffffffffffffffffffffffffffffffffff1673ffffffffffffffffffffffffffffffffffffffff1681526020018773ffffffffffffffffffffffffffffffffffffffff1673ffffffffffffffffffffffffffffffffffffffff1681526020018681526020018581526020018415151515815260200183815260200182815260200197505050505050505060405180910390f35b34801561017c57600080fd5b50610185610328565b6040518082815260200191505060405180910390f35b6101d9600480360381019080803573ffffffffffffffffffffffffffffffffffffffff1690602001909291908035906020019092919050505061032e565b604051808215151515815260200191505060405180910390f35b6101fb61058c565b6040518082815260200191505060405180910390f35b80600160008481526020019081526020016000206003018190555042600160008481526020019081526020016000206006018190555060016000838152602001908152602001600020600201548110151561029557600180600084815260200190815260200160002060040160006101000a81548160ff0219169083151502179055505b5050565b60016020528060005260406000206000915090508060000160009054906101000a900473ffffffffffffffffffffffffffffffffffffffff16908060010160009054906101000a900473ffffffffffffffffffffffffffffffffffffffff16908060020154908060030154908060040160009054906101000a900460ff16908060050154908060060154905087565b60005481565b60008273ffffffffffffffffffffffffffffffffffffffff166108fc349081150290604051600060405180830381858888f19350505050158015610376573d6000803e3d6000fd5b50600080815480929190600101919050555060e0604051908101604052803373ffffffffffffffffffffffffffffffffffffffff1681526020018473ffffffffffffffffffffffffffffffffffffffff1681526020018381526020016000815260200160001515815260200142815260200142815250600160008054815260200190815260200160002060008201518160000160006101000a81548173ffffffffffffffffffffffffffffffffffffffff021916908373ffffffffffffffffffffffffffffffffffffffff16021790555060208201518160010160006101000a81548173ffffffffffffffffffffffffffffffffffffffff021916908373ffffffffffffffffffffffffffffffffffffffff160217905550604082015181600201556060820151816003015560808201518160040160006101000a81548160ff02191690831515021790555060a0820151816005015560c082015181600601559050507f85e79157cc5a6cb49729848c7869840b978552ce5d0f7be2fe5cfd35ab05f46d833334600054604051808573ffffffffffffffffffffffffffffffffffffffff1673ffffffffffffffffffffffffffffffffffffffff1681526020018473ffffffffffffffffffffffffffffffffffffffff1673ffffffffffffffffffffffffffffffffffffffff16815260200183815260200182815260200194505050505060405180910390a16001905092915050565b60003373ffffffffffffffffffffffffffffffffffffffff16319050905600a165627a7a72305820846d59a78a64c96376d99e456fb52a2c6122826066e3c8eb3a73b83dd28e45810029",
  "source": "pragma solidity ^0.4.17;\r\n\r\ncontract Transaction {\r\n\r\n    struct SingleTransaction {\r\n        address ngoSender;\r\n        address agriReceiver;\r\n        uint requiredCarbonPercDecrease;\r\n        uint carbonReducProgress;\r\n        bool contractCompleted;    \r\n        uint contractDate;\r\n        uint contractLastUpdateDate;\r\n    }\r\n\r\n    // Store Transactions Count\r\n    uint public transactionCount;\r\n\r\n    mapping(uint => SingleTransaction) public transactionsMap;\r\n\r\n    event TransferFund(address _transferTo, address _transferFrom, uint _amount, uint _transactionMapKey);\r\n\r\n    constructor() public {        \r\n    }\r\n\r\n    function transferFund(address _transferTo, uint requiredCarbonPercDecrease) public payable returns (bool){\r\n        _transferTo.transfer(msg.value);\r\n        transactionCount++;\r\n        transactionsMap[transactionCount] = SingleTransaction(msg.sender, _transferTo, requiredCarbonPercDecrease, 0, false, now, now);\r\n        emit TransferFund(_transferTo, msg.sender, msg.value, transactionCount);\r\n        return true;\r\n    }\r\n    \r\n    function getBalanceOfCurrentAccount() public payable returns (uint) {\r\n        return msg.sender.balance;\r\n    }\r\n\r\n    function editTransactionCarbonReducProgress(uint _transactionMapKey, uint _carbonReducProgress) public {\r\n        transactionsMap[_transactionMapKey].carbonReducProgress = _carbonReducProgress;\r\n        transactionsMap[_transactionMapKey].contractLastUpdateDate = now;\r\n        if(_carbonReducProgress >= transactionsMap[_transactionMapKey].requiredCarbonPercDecrease) {\r\n            transactionsMap[_transactionMapKey].contractCompleted = true;\r\n        }\r\n    }\r\n}",
  "sourcePath": "C:\\Users\\manue\\Documents\\CropHopeApp\\crop-app\\contracts\\contracts\\Transaction.sol",
  "compiler": {
    "name": "solc",
    "version": "0.4.24+commit.e67f0147.Emscripten.clang"
  },
  "schemaVersion": "2.0.1",
  "updatedAt": "2018-11-18T09:03:03.046Z"
}